:020000040000FA
:10000000880200209D010000A1010000A301000062
:1000100000000000000000000000000000000000E0
:10002000000000000000000000000000A50100002A
:100030000000000000000000A7010000A90100006E
:10004000AB010000AB010000AB01000000000000AC
:10005000AB010000000000000000000000000000F4
:1000600000000000AB0100000000000000000000E4
:1000700000000000AB01000000000000AB01000028
:100080004515000000000000AB010000000000006A
:10009000AB010000000000000000000000000000B4
:1000A000AB010000AB0100000000000000000000F8
:1000B000000000000000000000000000AB01000094
:1000C00000F002F800F05AF812A030C808382418DE
:1000D0002D18AC4201D100F051F80FCCA246AB462E
:1000E0000CA730CF2D1B083F3F197C427F1E544484
:1000F0002D090426F441641EAC4201D300F03EF801
:100100000126334200D0FB1A3343984754465D46DC
:10011000DFE700002423000044230000000000006B
:10012000103A02D378C878C1FAD8520701D330C840
:1001300030C101D504680C60704700000000000069
:100140007047000000000000002300240025002666
:10015000103A01D378C1FBD8520700D330C100D583
:100160000B60704710B5642902D100F071F810BD22
:10017000002010BD1FB51FBD10B510BD00F048FB1D
:100180001146FFF7F7FF01F097FB00F060FB03B4A7
:10019000FFF7F2FF03BC01F03DFB000006480047FB
:1001A000FEE7FEE7FEE7FEE7FEE7FEE70348044959
:1001B000024A044B70470000C10000008801002083
:1001C00088020020880100200FB4054910B503AA59
:1001D000029800F0D9FA10BC08BC04B0184700001F
:1001E00030010020F8B50E4604460020206220466B
:1001F000E1688847002829D0252802D06268A168D4
:1002000020E0E16820460027884705001ED02846E8
:100210004138192802D80127FF02203532462046EE
:1002200027602946FFF79EFF002808D0012804D048
:10023000F61DF608F6000836D9E7361DD7E76268DE
:100240002846A1689047206A401CCFE7206AF8BD85
:10025000F7B5002575291068009914A611D0C0467D
:10026000C046002802DA404211A608E00099096859
:100270008A0701D50FA602E0490704D50EA601257D
:1002800001E0C046C046009F0024243704E000F08F
:100290008FFA30313955641C0028F8D12B4632468C
:1002A0002146009800F017FAFEBD00000000000093
:1002B0002D0000002B0000002000000010B50446B7
:1002C00003E001F0AFFA401C08D020780549641C17
:1002D0000028F6D10A2001F0A5FA10BD0020C04385
:1002E00010BD00003001002001E004C0091F0429F6
:1002F000FBD28B0701D50280801CC90700D0027099
:10030000704700290BD0C30702D00270401C491E61
:10031000022904D3830702D50280801C891EE3E7EB
:100320000022EEE70022DFE7002203098B422CD3F4
:10033000030A8B4211D300239C464EE003460B4335
:100340003CD4002243088B4231D303098B421CD397
:10035000030A8B4201D394463FE0C3098B4201D389
:10036000CB01C01A524183098B4201D38B01C01AC1
:10037000524143098B4201D34B01C01A5241030938
:100380008B4201D30B01C01A5241C3088B4201D3E7
:10039000CB00C01A524183088B4201D38B00C01A94
:1003A000524143088B4201D34B00C01A5241411ABB
:1003B00000D201465241104670475DE0CA0F00D09E
:1003C0004942031000D3404253409C460022030997
:1003D0008B422DD3030A8B4212D38901FC2212BA1D
:1003E000030A8B420CD3890192118B4208D38901F5
:1003F00092118B4204D389013AD0921100E089090D
:10040000C3098B4201D3CB01C01A524183098B42ED
:1004100001D38B01C01A524143098B4201D34B01D6
:10042000C01A524103098B4201D30B01C01A524139
:10043000C3088B4201D3CB00C01A524183088B42C0
:1004400001D38B00C01A5241D9D243088B4201D349
:100450004B00C01A5241411A00D201465241104687
:1004600063465B1001D34042002B00D549427047E0
:1004700063465B1000D3404201B50549002802DC09
:10048000491C084000E00846C046C04602BD00BF07
:10049000FFFFFF7F7047704770470000F0B5FF25F2
:1004A0002D04C609C209FF2704462E400137CB0997
:1004B0003E4348402A402B400746002A6BD0002B81
:1004C00069D0AA4267D0AB4265D0002800DA324634
:1004D0000125ED0529432C4309022002090AD21AFD
:1004E0004B0C7F24E31A434C000A7C44E35C7D24DC
:1004F0002404121914145B00A218884201D3521C60
:1005000000E0400049420C465C4324115C43DB019F
:100510006415E318040A5C43C502200D0C464443ED
:100520006419250A5D432303EC0C0D466543000363
:100530000019EB184C42A34201D35B18401CD405B0
:100540002018002B07D05B00C91804D3401C0029D9
:1005500001D1400840003F2189048A4209D3002A82
:1005600008DC1106090F04D0032149074018C00F09
:10057000C007F0BD01224100120689187F225206F1
:100580009142F6D205214907C84201D59010F0BD2D
:10059000FF20C005F0BD002F00DA32461648AA42FF
:1005A00007D2AB4205D21902090E17D0F80FC007C7
:1005B000F0BDFF2563002D06AB42F9D84900A942E2
:1005C000F6D8AB4201D1A942F2D0A94201D1002113
:1005D00001E061004908D0050843F0BD1102090E91
:1005E000FBD0FF200243D005F0BD0A46014610466D
:1005F00054E70000721600000000C07F10B50146ED
:100600009E240002CA15A307002A02D01843002A1C
:1006100004DBA21A002A0CDDD04010BD1206120E17
:1006200001D140004008A21A03D4D0404042002823
:10063000F3DDFF2248001206904201D9002010BDD0
:10064000C817C043584010BD0102C21504D0012391
:10065000DB071943002A0ADB9E239A1A02D40846B4
:10066000D0407047FF2241001206914201D900207C
:100670007047C017C04370471F22030C02D10F22DE
:1006800000041CD0030E01D10002083A030F01D16F
:100690000001121F830F01D18000921E002801DB90
:1006A0004000521ED20551180212511819229040D2
:1006B00004D3491C002801D1490849000846704765
:1006C000C10FC90700D04042012292071143D3E76E
:1006D00001218907D0E7FFB504460D4681B02430DB
:1006E00000902168880604D51022E06991432160BA
:1006F00000E00120A84201DD471B00E0002704982C
:10070000A1697A191018081AA0612078C00602D4CD
:100710002046C046C046002608E003986268A168EB
:10072000805D9047206A401C761C206204988642B7
:10073000F3DB2078C0060AD52046C046C04606E056
:100740006268A16830209047206A401C20623846C9
:100750007F1E0028F4DC07E000986268A168405D15
:100760009047206A401C206228466D1E0028F3DC5A
:100770002046C046C0462078000602D5022005B0BB
:10078000F0BD0120FBE70000084B70B50D467B442F
:1007900000F027F80446284600F036F8002802D07A
:1007A0000020C04370BD204670BD000093100000C3
:1007B00001468008081A02091018020A1018020CD3
:1007C0001018C008820012185200891A01E0401C5B
:1007D0000A390A29FBD2704701694A1C026108786C
:1007E000704700B58FB00291002105910549019332
:1007F00079440391114604906846FFF7F3FC0FB06B
:1008000000BD0000E5FFFFFFC06880210840704781
:10081000754600F025F8AE46050069465346C00807
:10082000C000854618B020B5FFF7C0FC60BCB646D6
:1008300000260027C0C5C0C5C0C5C0C5C0C5C0C54D
:10084000C0C5C0C5403D490849008D46704710B538
:100850000446C046C0462046FFF799FC10BD000084
:1008600000487047A0000020801E001F00BFFCD27F
:1008700070470000F0B5464A8218294BC318087922
:1008800020280DD000281DD10C68641E5460D56E40
:10089000244C25408835D5661646703688251DE0DF
:1008A0000C68641E5460D46E1E4D2C401E4EA4195C
:1008B000D466146F2C40A4191467012465071B4CDF
:1008C00016460BE00C6864085460D66E154C264042
:1008D0000525ED017619D66616467036376827402D
:1008E0002F433760D46A2C4D2C40D462146B2C40BB
:1008F00014630024D46414658F24E443D56F254029
:10090000D5671D6825401D6049790143BD20084019
:100910001168074B0B40C018801C1060F0BDC0462A
:100920008418000024F93FF001040000FFFFFFCF0E
:100930004000FFCFB0B5164A80184A6842600A7876
:10094000002A12D0022A10D0102A05D0122A03D071
:10095000222A01D0202A0DD103231B0704689C43BF
:1009600001235B07E318036004E003231B0704680B
:100970009C4304600B8AC360CB68064C1C40C36A6E
:10098000054D1D402B19C362097A11430160B0BDAA
:1009900004180000777702008888FDFF10B5072350
:1009A0009B04194092008018024A84589C436118A5
:1009B000815010BD3018000010B5029CA400001931
:1009C00011431943014A815010BDC0465018000020
:1009D00092008018014A81507047C04610180000EC
:1009E00010B50122120383180C789C604B78835059
:1009F0008978014A815010BD0C110000B0B5112258
:100A0000120283580124A34383508B780C881C4323
:100A10008B882343094C1C408358094D1D402B19DA
:100A200083508B79CC791C43097A21437E2319406A
:100A3000801842689A4351184160B0BD18670000A1
:100A4000E798FDFF10B50122120383180C789C6013
:100A50004978815010BD0000F8B5994F7868461E5E
:100A60000F2E00D9D5E06B4DA8193021405C092824
:100A700012D8F96A002943D0F869441CFC617F2030
:100A8000C105654D2746002F2BD00846294600F0AA
:100A9000A7FF01467F1EF6E70A38052840D8C04662
:100AA0007844007940008744023B40454A547869C5
:100AB0000A21FFF739FC7861F869002800D1A8E025
:100AC000401EF861286A6A6AA96AEB6A00F002F9B6
:100AD0003B7F7A69102000900220032100F0E0FAA9
:100AE000F8BD002CE74C00D193E0B0004B4A105801
:100AF000FFF7D4FC0146A06800F02CFFA060F8BD11
:100B00007969474A914200D983E00A224A43101882
:100B10007861F969491CF961FFF7DAFDB860F8BD41
:100B20000020F8610120F8626DE0386A012826D0C3
:100B3000012025E0786A012824D0012023E0386ACA
:100B400002282DD0012850D17878002848D00020E4
:100B500047E07869411E03468B41396A4C1E0A46BC
:100B6000A2411A40FB6A002B0FD0002A1DD0B868A2
:100B70007A6A8900022A2ED1491948623CE0022093
:100B8000386240E0022078623DE0002A18D07A6A9C
:100B90008900022A2ED14C19FFF79AFD60622BE0E2
:100BA000B87800281FD000201EE0002924D100289A
:100BB00022D0B868796A02290BD0FFF745FD17E00B
:100BC000002919D1002817D0796A022910D1FFF71E
:100BD0007FFDA86210E04C19FFF736FDE0610BE0E5
:100BE0000120787001E00120B87000F01BF80AE0E5
:100BF000286201E04919C8610020F8621437142105
:100C00003846FFF78FFB286A6A6AA96AEB6A00F028
:100C100061F8F8BD000000200000204160000020C5
:100C20007F96980070B50025F34EE8B2072816D8D5
:100C300028465038C0B200242146B0470220214641
:100C4000B04710202146B04760B2002805D40020EC
:100C5000012100F01FFB641CF6E76D1CE5E770BD89
:100C60001CB5174C606A012803D0022806D117A2D0
:100C700000E014A21620012100F057FA206A012892
:100C800003D0022806D18A4A00E07C4A02200121D2
:100C900000F04BFA6269002A09D0E06A002807D008
:100CA000A268032100910220052300F06EFA1CBD0A
:100CB0001020009002200321082300F0F1F91CBD50
:100CC00000010020204672657120000020447574E8
:100CD00079200000F0B585B00393154601910646D2
:100CE000FFF7A0FF0027FF24644A654B38462146E2
:100CF0009847644840780128049501D0634A00E091
:100D0000614A142021465E4DA8470C24604A2046C3
:100D10003946A84701215F4A2046A8471020029083
:100D200000902C2005233946324600F0B9F95424AE
:100D3000594A20463946A84703270097282002250C
:100D40002946019A2B4600F020FA544A20462946AB
:100D500000F0EBF95348864205D053488642494C8F
:100D600007D1524A01E04E4A464C4420002100F08F
:100D7000DCF900204E4A3946414B9847A0780128BB
:100D800001D0424A00E0404A1420394601973C4FC6
:100D9000B8470C2404253E4A20462946B847052674
:100DA0003C4A20463146B847029800902C202946FC
:100DB000049F3A46334600F073F95424364A2046DD
:100DC00029462F4B9847019800902820062502239A
:100DD0002946039A00F0D9F9304A2046294600F006
:100DE000A4F93148874206D02E48874208D14420D2
:100DF00004212B4A02E0342004212C4A00F095F90A
:100E00006624FF212BA220461D4EB04700212BA2B5
:100E10002046B04701212B4D20462A46B047682086
:100E2000022129A2B047032120462A46B047642068
:100E3000042126A2B047052120462A46B0476C204F
:100E4000062124A2B0470F4C206A012803D00228B3
:100E500006D123A200E020A26620002100F07DF947
:100E6000606A01280A4A02D0022804D1094A652092
:100E7000022100F072F905B0F0BDC0460F24000059
:100E80005B11000000010020172400001E24000058
:100E9000262400002B240000302400000824000039
:100EA0001B24000040420F00A08601002124000006
:100EB000132400004D454E550000000043482F32DA
:100EC000000000000A240000462F4400456E6162C5
:100ED000000000004F4B000020434831000000009C
:100EE0002043483200000000F8B5354C2046FFF79B
:100EF000BBFC2046FFF7B8FCAE2000243E4E214646
:100F0000B047022000902146B04710202146B0474C
:100F1000402738462146B04781202146B047CF20A0
:100F20002146B047A1202146B047C8202146B047FE
:100F3000A62528462146B047A8202146B0473F2095
:100F40002146B047D3202146B04720462146B0472E
:100F5000D5202146B04780202146B047D9202146E0
:100F6000B047F1202146B047DA202146B047122091
:100F70002146B047DB202146B04738462146B047DE
:100F800020202146B04700982146B0478D202146B9
:100F9000B04714202146B047A4202146B047284638
:100FA0002146B047AF2528462146B047284621466E
:100FB000B047FFF737FE2046214600F00BF8F8BD9A
:100FC00000D43000024601200B0602D05043491ED7
:100FD000FAE7704770B504465039C8B20025064E8E
:100FE0002946B047200910302946B0470E2020403E
:100FF000401C2946B04770BD95120000F8B5154653
:1010000044B2E21794438009022202405018009033
:10101000C1B22046FFF7DEFF203DE8B205010F48D0
:1010200047190026082E05D0B85D012100F032F9DD
:10103000761CF7E7E0B20099491CC9B2FFF7CAFF76
:1010400008200543054844190025082D05D0605D9A
:10105000012100F01FF96D1CF7E7F8BDC81D000065
:10106000B0B5144642B2D3179A4380090223034015
:10107000C818401CC1B21046FFF7ACFF203CE0B2DC
:1010800006214143054844180025062D05D0605D22
:10109000012100F0FFF86D1CF7E7B0BDA01B0000B8
:1010A000F0B587B01C4603AD07C50C984008029008
:1010B000581E019000273E460697BC4233D0F043AD
:1010C0000019C1B20A25284600F03CFC01460598EB
:1010D000FFF72AF92946FFF727F90698002806D1D5
:1010E0000198B84203DD002910D00120069030207D
:1010F0000143CAB238460299484303994018C0B226
:101100000499FFF77BFF761C7F1CD6E738460299CF
:10111000484303994018C0B220220499FFF76EFF9C
:1011200000200690EFE707B0F0BDF8B514460D4675
:1011300006460027F8B2225C002A0DD0F0B2E9B2D0
:10114000FFF75CFF0836F0B2782800D9002678282F
:1011500000D9AD1C7F1CEDE7F8BDF8B514460D466F
:1011600006460027F8B2225C002A0DD0F0B2E9B2A0
:10117000FFF776FFB61DF0B2782800D90026782850
:1011800000D9AD1C7F1CEDE7F8BDF0B587B01F4658
:101190000691039000921046FFF730FA0290781EF5
:1011A000019000250C9804902C462E460597AF42DE
:1011B0002FD0F043C019C1B20A273846FFF702FF0B
:1011C00001460298FFF7B0F83946FFF7ADF8002C5A
:1011D00007D10198A842059F04DD00290FD0012402
:1011E00000E0059F30200143CAB2E800039940188F
:1011F000C0B20699FFF702FF761C6D1CD7E7E80026
:1012000003994018C0B220220699FFF7F7FE002488
:10121000F2E7F800039C0019C0B22E220699FFF7EE
:10122000EDFE0298FFF74CFA0146009800F030FC02
:1012300007460A20049D2946FFF7C4FEFFF748FA37
:101240000146384600F0CCFBFFF7D8F90746641D8D
:101250000026F0B2A8421AD2F0434019C1B20A25C2
:101260002846FFF7AFFE01463846FFF75DF82946EE
:10127000049DFFF759F830220A4305983018C00042
:101280002018C0B20699FFF7B9FE761CE1E707B057
:10129000F0BD0000B0B50F4A002902D01021116046
:1012A00001E010211161042111610023072B0DD8E9
:1012B0004024146145B2002D02D42025156101E0BF
:1012C0002025156014605B1C4000EFE711601020C2
:1012D0001060B0BD90120A4010B5114882224265DC
:1012E00001235C050F490C6082669B060B608262DD
:1012F0000D4AC262812282600261826142610B4BAF
:1013000003604360C2610263094A426382634264CC
:10131000826408463038074A02600A6010BDC04641
:1013200004804240D0120A40820004008100020082
:1013300081000500F7100000BCB5104C1049204694
:10134000FFF74EFB0F492046FFF794FA0E490025A0
:1013500020462A46FFF73CFB0095204629462A46B0
:101360002B46FFF729FB204629462A46FFF716FBA6
:101370000648012181600160BCBDC0460080084074
:10138000B8230000BC230000102700000091084093
:10139000BCB5104C10492046FFF722FB0F492046F0
:1013A000FFF768FA0E49002520462A46FFF710FB92
:1013B0000095204629462A462B46FFF7FDFA20468F
:1013C00029462A46FFF7EAFA0648012181600160B2
:1013D000BCBDC04600600840C4230000C823000014
:1013E0008813000000710840084800210160084887
:1013F00001680322914301600121090342680A4305
:101400004260C16B10220A43C263704708030B405D
:1014100000010B4010B50C4C0C492046FFF7E0FAD8
:101420000B492046FFF786FA0A480168012211435A
:1014300001600948016880230B437F218B430360CF
:101440000648026010BDC04600400840E523000089
:10145000E82300002850084010E400E0085108404C
:1014600010B5194C19492046FFF7ECFA18492046E7
:10147000FFF7C4FA0320C103164802688A430260DA
:101480000169154A0A4011320261416917220A4373
:1014900028218A434261426801210A4043688B4304
:1014A0009A1842604A04036813430360C2687023B9
:1014B0001343C360C2680223134305229343C360EE
:1014C00002680A43026010BD00001040FC230000C7
:1014D000FE230000001110400000FFFF80B500F067
:1014E0000DF8FFF7F9FEFFF77FFFFFF725FFFFF786
:1014F0004FFFFFF78FFFFFF7B3FF80BDB0B50A487E
:101500000A4941600A4A51600A4B59600A4C6160BD
:101510000A4D69600A490160116019602160296003
:101520001020FFF7A1F9B0BD00080A40030000B188
:101530000088084000680840004808400008104043
:101540000100002670B5134E7078002801D015A058
:1015500000E011A0FEF7B2FE164D296A16A01A4C43
:10156000A047A86AFFF770F8014618A0A047B07816
:10157000002801D01DA000E019A0FEF79FFE696AB7
:101580001DA0A047E86AFFF75FF801461EA0A0472C
:1015900070BDC046000100200A43483120456E61FD
:1015A000626C65000A4348312044697361626C656E
:1015B00000000000000000204348315F4672657162
:1015C0003D2564487A0A0000C90100004348315FA4
:1015D000447574795B305D3D256425250A00000063
:1015E00043483220456E61626C65000043483220FA
:1015F00044697361626C65004348325F467265718D
:101600003D2564487A0A00004348325F4475747986
:101610003D256425250A0000FEB5C248006A7D21EB
:101620008900654A654D0291884202D9614CBF49E3
:1016300026E0B42803D9624C6249154620E04128CF
:1016400003D9614C6149624D1AE0202803D9614CED
:101650006149624D14E00A2803D9614C6149624D29
:101660000EE0042801D8624C00E0604C042801D848
:10167000614D00E05F4D042801D8614900E05F49F9
:101680006048FFF7ADF9A7480560006AFFF720F84A
:1016900001462046FEF702FF0646FEF7D5FF074645
:1016A000A7484478002C00D001279E488761806AB3
:1016B0005549FEF7F3FE7F21C905019100F04AF973
:1016C0000146304600F08CF90546FEF7BDFF002CC0
:1016D00000D00220934CE0614C480760A660984817
:1016E000C560E16900224748FFF772F9606A029914
:1016F000884203D92F4D8D49304C26E0B42803D9B8
:101700002F4D30492C4C20E0412803D92E4D2F4934
:101710002F4C1AE0202803D92E4D2F492F4C14E0CE
:101720000A2803D92E4D2F492F4C0EE0042801D84A
:101730002F4D00E02D4D042801D82F4C00E02D4CFA
:10174000042801D82E4900E02C497748FFF748F9D2
:1017500074484460406AFEF7BBFF01462846FEF726
:101760009DFE0546FEF770FF074675488678002EF9
:1017700000D001276B48C760C06A2349FEF78EFE80
:10178000019900F0E7F80146284600F029F90446DF
:10179000FEF75AFF002E00D00220624908611C4863
:1017A00007604D6166480461096900225E48FFF7E1
:1017B0000FF9FEBD0024F44BABC2A2000048E801C3
:1017C000ABC2224BD32300000024744AD62300006E
:1017D00000093D00A8C2A249D923000055581400B1
:1017E0000024F448DC23000020A1070000247448F2
:1017F0000024744790D0030024F40000DF2300008D
:10180000E2230000008008400000C8C20898084099
:1018100008780840704780B57D2109024843FFF7EA
:1018200023F880BDC2B203498A610A68D207FCD19D
:101830007047C04608111040FEB500270297042FDC
:1018400030D00A20FFF710F8B800184B1858164A85
:10185000114610390860781C01908007000F185855
:101860001060B81C8007000F18581060781E8007A1
:10187000000F185810600E48FEF7F6FF0026102ED5
:101880000ED00A48801905690A4804680A20FEF744
:10189000EBFF2C4202D0B819401C0290361DEEE737
:1018A000019FCCE70298FEBDA0120A404000002034
:1018B000204E000080130A40FFF710FEFFF714FBD4
:1018C000FFF7B0F9174B186A5A6A996ADB6AFFF793
:1018D00001FA15481549FFF783F8154801680122F8
:1018E0001143016013480168114301601248016807
:1018F00011430160100411490860114CFFF79CFF6F
:101900006060FFF7A9F82078401C2070606800280C
:1019100004D06420FFF77FFFFFF7A2F9FFF77CFEFA
:10192000ECE7C0460000002000600840D023000023
:1019300004980840047808400458084000E100E09A
:1019400000010020024601200B0602D05043491E30
:10195000FAE7704770B50125ED0704004C4020D42C
:10196000441A01D2001B0919C60D4B00F2B2FF2A1E
:1019700029D01B0E2CD000020C0228432C43D31A72
:10198000DC40051910D2280A02D3401C6D0611D084
:10199000761EF6058019FF2A00DA70BDC00DC0055D
:1019A00070BD694000F07AF801200543C541521C22
:1019B000761CE8E764089C40C90161408900E7D1D2
:1019C0000124A043E4E71B0E440200D0034870BD8D
:1019D000002AFCD1C00FC00770BD00BF0000C07F4F
:1019E00070B5420064414B005C41120E39D01B0EB1
:1019F00038D0FF2A3CD0FF2B3AD0D2187F3A400291
:101A00004902400A490A4518ED0106004E43000A02
:101A1000090A48430104731A4019190C4318990F15
:101A200004D05B08012149075B1A521CD80904D372
:101A3000401CF50301D19D0607D0FF2A08D2D50529
:101A400006D0E4072043401970BD0125A843F4E700
:101A5000002A01DCE00770BD2402FF202043C005FE
:101A600070BD1B0EFF2A03D0FF2B01D0E00770BD15
:101A7000FF2636064500B54206D84D00B54203D8CC
:101A8000D218FF2A00D0E7E7004870BD0000C07FF1
:101A900070B50125ED0704004C4022D4441A02D24F
:101AA0006C40001B0919C60D4B00F2B2FF2A4BD047
:101AB0001B0E50D000020C02A8432C43D31ADC406A
:101AC000051B05D5AD0019D36D08761E521E37D003
:101AD000F605280A01D2801970BD70416D0603D049
:101AE00070BD6940FFF73CFF9C400902614049001E
:101AF00001D0401E70BD0124A04370BD6D081DD0F3
:101B000001202B0C01D12D0410302B0E01D12D0200
:101B100008302B0F01D12D01001DAB0F01D1AD00FD
:101B2000801CEB0F01D16D00401C361A121A6D009B
:101B3000680AF5054019012A02DB70BD002070BD5E
:101B4000C036300AC00770BD1B0E440201D1FF2B06
:101B500000D1024870BD002AF0D070BD0000C07FE7
:101B60008182838485868788898B8C8D8E8F9192E4
:101B700093959697999A9C9D9FA0A2A3A5A7A8AA82
:101B8000ACAEB0B2B3B5B7B9BCBEC0C2C5C7C9CCA4
:101B9000CED1D4D7D9DCDFE2E6E9ECF0F3F7FAFEF8
:101BA0000000000000000000002F000000000700FF
:101BB000070000147F147F1400242A7F2A12006279
:101BC0006408132300364955225000000503000025
:101BD00000001C224100000041221C000014083EAD
:101BE00008140008083E0808000000A06000000873
:101BF00008080808000060600000002010080402C7
:101C0000003E5149453E0000427F40000042615184
:101C10004946002141454B31001814127F1000271E
:101C200045454539003C4A494930000171090503E1
:101C300000364949493600064949291E0000363612
:101C40000000000056360000000814224100001475
:101C50001414141400004122140800020151090652
:101C600000324959513E007C1211127C007F4949D3
:101C70004936003E41414122007F4141221C007F04
:101C800049494941007F09090901003E4149497A12
:101C9000007F0808087F0000417F4100002040418C
:101CA0003F01007F08142241007F40404040007FF8
:101CB000020C027F007F0408107F003E4141413E3C
:101CC000007F09090906003E4151215E007F091984
:101CD00029460046494949310001017F0101003F81
:101CE0004040403F001F2040201F003F4038403F01
:101CF0000063140814630007087008070061514965
:101D0000454300007F41410000552A552A550000F7
:101D100041417F0000040201020400404040404075
:101D2000000001020400002054545478007F48440D
:101D3000443800384444442000384444487F003844
:101D40005454541800087E0901020018A4A4A47C6D
:101D5000007F080404780000447D40000040808437
:101D60007D00007F102844000000417F4000007C7F
:101D700004180478007C080404780038444444388B
:101D800000FC242424180018242418FC007C0804D7
:101D9000040800485454542000043F444020003CB0
:101DA0004040207C001C2040201C003C4030403C37
:101DB000004428102844001CA0A0A07C00446454C7
:101DC0004C4414141414141400000000000000000B
:101DD0000000000000000000000000F8000000000B
:101DE000000000333000000000100C06100C06004C
:101DF000000000000000000040C07840C0784000B3
:101E0000043F04043F040400007088FC0830000014
:101E1000001820FF211E0000F008F000E01800006C
:101E200000211C031E211E0000F008887000000025
:101E30001E2123241927211010160E000000000077
:101E40000000000000000000000000E01804020094
:101E5000000000071820400000020418E000000005
:101E60000040201807000000404080F08040400003
:101E70000202010F01020200000000F00000000059
:101E80000101011F0101010000000000000000002D
:101E900080B07000000000000000000000000000A2
:101EA000000101010101010100000000000000002B
:101EB00000303000000000000000000080601804C6
:101EC000006018060100000000E010080810E000A3
:101ED000000F102020100F00001010F8000000006C
:101EE0000020203F202000000070080808887000B3
:101EF0000030282422213000003008888848300033
:101F00000018202020110E000000C02010F8000052
:101F100000070424243F240000F8088888080800EB
:101F20000019212020110E0000E010888818000000
:101F3000000F112020110E0000380808C8380800D2
:101F40000000003F00000000007088080888700052
:101F5000001C222121221C0000E010080810E000D3
:101F60000000312222110F00000000C0C00000005C
:101F70000000003030000000000000800000000081
:101F80000000806000000000000080402010080079
:101F90000001020408102000404040404040400042
:101FA000040404040404040000081020408000001D
:101FB0000020100804020100007048080808F00022
:101FC0000000003036010000C030C828E810E000F2
:101FD0000718272423140B000000C038E00000007D
:101FE000203C23020227382008F8888888700000E7
:101FF000203F202020110E00C030080808083800BB
:10200000071820202010080008F808080810E00031
:10201000203F202020100F0008F88888E8081000D2
:10202000203F20202320180008F88888E8081000A6
:10203000203F200003000000C030080808380000DE
:1020400007182020221E020008F808000008F808DF
:10205000203F210101213F20000808F80808000066
:102060000020203F2020000000000808F808080099
:10207000C08080807F00000008F888C02818080011
:10208000203F20012638200008F80800000000004A
:10209000203F20202020300008F8F800F8F8080041
:1020A000203F003F003F200008F830C00008F8083B
:1020B000203F200007183F00E01008080810E0004B
:1020C0000F10202020100F0008F808080808F00062
:1020D000203F210101010000E01008080810E00085
:1020E0000F18242438504F0008F88888888870001A
:1020F000203F2000030C30200070880808083800BA
:102100000038202121221C00180808F808081800AF
:102110000000203F2000000008F808000008F80830
:10212000001F202020201F000878880000C83808E1
:10213000000007380E010000F80800F80008F80059
:10214000033C0700073C03000818688080681808F3
:1021500020302C03032C30200838C800C838080071
:102160000000203F2000000010080808C8380800C0
:102170002038262120201800000000FE0202020064
:102180000000007F40404000000C30C00000000014
:10219000000000010638C00000020202FE0000003C
:1021A000004040407F0000000000040202020400E2
:1021B000000000000000000000000000000000001F
:1021C0008080808080808080000202040000000007
:1021D00000000000000000000000808080800000FF
:1021E0000019242222223F2008F8008080000000ED
:1021F000003F112020110E000000008080800000B0
:10220000000E112020201100000000808088F800BE
:10221000000E112020103F200000808080800000F0
:10222000001F222222221300008080F08888881854
:102230000020203F2020000000008080808080005F
:10224000006B94949493600008F8008080800000F4
:10225000203F210000203F200080989800000000CF
:102260000020203F202000000000008098980000FF
:1022700000C08080807F000008F80000808080001F
:10228000203F24022D302000000808F80000000044
:102290000020203F202000008080808080808000FF
:1022A000203F20003F20003F808000808080000091
:1022B000203F210000203F2000008080808000001F
:1022C000001F202020201F00808000808000000050
:1022D00080FFA12020110E0000000080808080007F
:1022E000000E112020A0FF80808080008080800070
:1022F00020203F212000010000008080808080009D
:102300000033242424241900008080E08080000011
:102310000000001F2020000080800000008080005E
:10232000001F202020103F208080800000808080BF
:1023300000010E300806010080800080008080804F
:102340000F300C030C300F00008080008080800074
:102350000020312E0E31200080808000008080809F
:1023600080818E701806010000808080808080004F
:102370000021302C2221300000000000807C02026D
:1023800000000000003F404000000000FF0000008F
:1023900000000000FF0000000002027C800000003E
:1023A0000040403F00000000FFFFFFFFFFFFFFFF76
:1023B000FFFFFFFFFFFFFFFF04070700204E0000A5
:1023C00000000000080200001027000000000000CC
:1023D00008000008020004000004020004070004D2
:1023E000070104070702000022000000FF7F000031
:1023F00001000000000000000000000008000000D4
:10240000180000000030000025002D2D2D2D004368
:10241000483100434832004F464600314D004F4E90
:10242000003130306B00467265710044757479007C
:10243000487A00000000000058240000000000203E
:10244000A000000020010000F8240000A0000020EF
:10245000E8010000480100000024F4000024F4001A
:1024600000007A44F4010000E803000000007A4410
:10247000F4010000E803000001000000010000007A
:1024800000004842000048420704010A0805020013
:102490000906030B0C0D0E0F0100000002000000E6
:1024A000800000000010000000200000004000003C
:1024B00000000200000004000000E0400000804036
:1024C0000000803F00002041000000410000A040CB
:1024D0000000004000000000000010410000C0406B
:1024E00000004040000030410000404100005041E9
:0824F000000060410000704192
:04000005000000C136
:00000001FF
